:100000000C9459030C9481030C9481030C94810388
:100010000C9481030C9481030C9481030C94810350
:100020000C9481030C9481030C9496060C9408079D
:100030000C9481030C9481030C9481030C94810330
:100040000C9481030C9481030C9481030C94810320
:100050000C9481030C9481030C9481030C94770914
:100060000C9481030C9481030C9481030C94810300
:100070000C9481030C9481030C9481030C948103F0
:100080000C9481030C9481030C9481030C948103E0
:100090000C9481030C9481030C9481030C948103D0
:1000A0000C9481030C9481030C94810301020408D5
:1000B0001020408000000000003E5B4F5B3E3E6B26
:1000C0004F6B3E1C3E7C3E1C183C7E3C181C577DF2
:1000D000571C1C5E7F5E1C00183C1800FFE7C3E73E
:1000E000FF0018241800FFE7DBE7FF30483A060E50
:1000F0002629792926407F050507407F05253F5A97
:100100003CE73C5A7F3E1C1C08081C1C3E7F142206
:100110007F22145F5F005F5F06097F017F006689B1
:10012000956A606060606094A2FFA29408047E04F7
:100130000810207E201008082A1C08081C2A08081D
:100140001E101010100C1E0C1E0C30383E383006DD
:100150000E3E0E06000000000000005F00000007D9
:10016000000700147F147F14242A7F2A1223130807
:10017000646236495620500008070300001C2241E3
:10018000000041221C002A1C7F1C2A08083E080887
:100190000080703000080808080800006060002037
:1001A000100804023E5149453E00427F400072491A
:1001B0004949462141494D331814127F10274545BE
:1001C00045393C4A494931412111090736494949D4
:1001D00036464949291E0000140000004034000042
:1001E00000081422411414141414004122140802AB
:1001F000015909063E415D594E7C1211127C7F491E
:100200004949363E414141227F4141413E7F494972
:1002100049417F090909013E414151737F0808089E
:100220007F00417F41002040413F017F081422416F
:100230007F404040407F021C027F7F0408107F3EC9
:100240004141413E7F090909063E4151215E7F0936
:10025000192946264949493203017F01033F40409D
:10026000403F1F2040201F3F4038403F6314081488
:100270006303047804036159494D43007F414141C0
:100280000204081020004141417F040201020440A1
:1002900040404040000307080020545478407F2825
:1002A0004444383844444428384444287F3854541B
:1002B000541800087E090218A4A49C787F0804043E
:1002C0007800447D40002040403D007F10284400DD
:1002D00000417F40007C047804787C08040478386E
:1002E00044444438FC1824241818242418FC7C089E
:1002F000040408485454542404043F44243C40401B
:10030000207C1C2040201C3C4030403C44281028CD
:10031000444C9090907C4464544C44000836410016
:100320000000770000004136080002010204023C90
:100330002623263C1EA1A161123A4040207A38545F
:1003400054555921555579412154547841215554DA
:10035000784020545579400C1E527212395555552B
:1003600059395454545939555454580000457C4116
:100370000002457D420001457C40F0292429F0F02F
:10038000282528F07C545545002054547C547C0A80
:10039000097F4932494949323248484832324A484D
:1003A00048303A4141217A3A42402078009DA0A04D
:1003B0007D39444444393D4040403D3C24FF2424A1
:1003C000487E4943662B2FFC2F2BFF0929F620C0BE
:1003D000887E090320545479410000447D4130480F
:1003E000484A32384040227A007A0A0A727D0D1952
:1003F000317D2629292F28262929292630484D40B4
:1004000020380808080808080808382F10C8ACBAAF
:100410002F102834FA00007B000008142A1422222E
:10042000142A14089500220095AA005500AAAA557E
:10043000AA55AA000000FF00101010FF00141414A9
:10044000FF001010FF00FF1010F010F0141414FC47
:10045000001414F700FF0000FF00FF1414F404FC64
:10046000141417101F10101F101F1414141F001045
:100470001010F0000000001F101010101F101010BE
:1004800010F010000000FF101010101010101010CD
:10049000FF10000000FF140000FF00FF00001F100D
:1004A000170000FC04F414141710171414F404F4C7
:1004B0000000FF00F714141414141414F700F714B8
:1004C0001414171410101F101F141414F414101007
:1004D000F010F000001F101F0000001F14000000AB
:1004E000FC140000F010F01010FF10FF141414FFA3
:1004F000141010101F00000000F010FFFFFFFFFF9E
:10050000F0F0F0F0F0FFFFFF0000000000FFFF0F31
:100510000F0F0F0F38444438447C2A2A3E147E02C1
:10052000020606027E027E02635549416338444456
:100530003C04407E201E2006027E020299A5E7A50B
:10054000991C2A492A1C4C7201724C304A4D4D307C
:100550003048784830BC625A463D3E494949007EA1
:100560000101017E2A2A2A2A2A44445F4444405138
:100570004A444040444A51400000FF0103E080FFEC
:10058000000008086B6B083612362436060F090F78
:1005900006000018180000001010003040FF010194
:1005A000001F01011E00191D1712003C3C3C3C00BD
:1005B00000000000D5F08D14A1C881CFD9F1AF2083
:1005C000000000000000000000000100000000002A
:1005D000000000000001000000000000000000001A
:1005E000010000000000000000000000000000000A
:1005F00000000000000000000101010000000000F8
:1006000000000000000000000000000000000000EA
:1006100000000100000000000000000101000000D7
:1006200000080B000202020100090400000102029E
:100630000000052400100105240101010424020624
:10064000052406000107058103100040090401008C
:10065000020A0000000705020240000007058302AD
:100660004000000403090412010002EF02014041AE
:1006700023360000010102030141726475696E6F47
:10068000204C4C430041726475626F79000808FF8A
:10069000FFFFFFFFFFFFFF3F0F030101030F3FFFBE
:1006A000E73BC0C03BE7FFBB77EEDDBB77EEDD008D
:1006B000C20F11241FBECFEFDAE0DEBFCDBF11E0C5
:1006C000A0E0B1E0EEE8F1E202C005900D92A234A4
:1006D000B107D9F726E0A2E4B1E001C01D92A8322B
:1006E000B207E1F713E0C9E5D3E004C02197FE01AA
:1006F0000E94BA10C835D107C9F70E947C0D0C942E
:10070000C5100C9400004091AD015091AE012091B4
:10071000AB013091AC0142175307B4F49091E8005B
:100720009570E1F39091E80092FD19C08093F1007B
:100730008091AD019091AE0101968F739927892B1D
:1007400019F48EEF8093E8008091AD019091AE0195
:1007500001969093AE018093AD0181E0089580E011
:100760000895CF92DF92EF92FF920F931F93CF9352
:10077000DF931F92CDB7DEB7182F062FE42E862FFA
:10078000880F8E5F99830E94830383E00E94830316
:10079000F12EC12E9981D92E8C2D8F19801798F4A6
:1007A000F601E7FE02C0849101C080810E948303AC
:1007B000182F80E00E9483038123FFEFCF1ADF0A06
:1007C0008111EACF01C081E00F90DF91CF911F919D
:1007D0000F91FF90EF90DF90CF900895DF92EF920E
:1007E000FF920F931F93CF93DF93D82E8A017B0143
:1007F000E40EF51EEB01CE15DF0571F0D7FE03C048
:10080000FE01849101C088810E9483032196811199
:10081000F2CF8FEF9FEF01C0C801DF91CF911F9101
:100820000F91FF90EF90DF900895615030F020918C
:10083000F100FC0120830196F8CF289884E680938C
:10084000B30108953FB7F8948091A7019091A80152
:10085000A091A901B091AA0126B5A89B05C02F3F80
:1008600019F00196A11DB11D3FBFBA2FA92F982FD6
:100870008827820F911DA11DB11DBC01CD0142E051
:10088000660F771F881F991F4A95D1F70895CF9259
:10089000DF92EF92FF920F931F93CF93DF936C0140
:1008A0007A018B01C0E0D0E0CE15DF0589F0D801D8
:1008B0006D918D01D601ED91FC910190F081E02DBB
:1008C000C6010995892B11F47E0102C02196ECCF57
:1008D000C701DF91CF911F910F91FF90EF90DF90B3
:1008E000CF9008958FB18095807F669B88601C9B18
:1008F000846008952F923F924F925F926F927F9201
:100900008F929F92AF92BF92CF92DF92EF92FF921F
:100910000F931F93CF93DF93CDB7DEB727970FB613
:10092000F894DEBF0FBECDBF9B838A836A30A1F4EB
:10093000DC0155962C91559751968D919C9152972B
:10094000B8E02B9F800D911D1124EA81FB81928BD1
:10095000818B108A1786C1C06D3009F4BEC0AA8190
:10096000BB8155964C91559754966C9054976E82D6
:1009700053967C9053977F825196CD90DC905297FE
:100980001F968D919C91509780389105C4F0AA8153
:10099000BB8155962C915597422F50E01F968D9113
:1009A0009C915097B6E02B9F800D911D1124EA81F8
:1009B000FB81908B8787268921117AC08EC0F0E455
:1009C000CF16D10424F79C0155E0459F200D311D21
:1009D000112412161306DCF6242E312C9601A8E001
:1009E0004A9F200D311D11241216130684F6B5E01E
:1009F0006B9FB0011124FB01EC54FF4F2F0150E01D
:100A0000F201B490553009F4B12C7601B8E09B2E78
:100A1000B0FC02C08E8001C08F8081100BC06E8040
:100A20007F80671007C0B6949A94E20CF31C911073
:100A3000EFCF33C09C012983622F681B641798F79E
:100A4000B701E62FEE19E41728F520383105F8F440
:100A500060347105E0F48B01ECEAF0E0A0E16A2E6D
:100A60007980609ED001A0781124A70D0770E00F57
:100A7000F11DA490BD83AC83AB54BE4F882019F008
:100A8000EC91AE2A03C0A094EC91AE22AC926F5FC1
:100A90007F4FD7CF2F5F3F4FCECF5F5F820D931D2C
:100AA00092012F5F3F4F2901563009F0A9CF6FCF38
:100AB0006AEF64039001659F300D112420583F4F69
:100AC0002817390754F48A819B81DC01ED91FC9150
:100AD0000190F081E02D6AE0099581E090E0279691
:100AE0000FB6F894DEBF0FBECDBFDF91CF911F913F
:100AF0000F91FF90EF90DF90CF90BF90AF909F90BD
:100B00008F907F906F905F904F903F902F900895BF
:100B10000895089580E090E00895CF93DF93909139
:100B2000010170910301282F082E000C330B291BA3
:100B3000310997FD339537FF03C031952195310970
:100B4000C22F981714F0AFEF01C0A1E0462F062E78
:100B5000000C550B471B510977FD539557FF03C0F8
:100B6000519541955109542F4195761714F0BFEFD7
:100B700001C0B1E03C2F351BE32FEE0FE41714F05A
:100B8000351B9A0F2E1714F03C0F7B0F9C3078F416
:100B9000783068F4DCE07D02F0011124E90FF11DEA
:100BA00097FDFA95EE5BFE4FD081DD7FD0839813E1
:100BB00002C0761769F0DCE07D02F0011124E90F34
:100BC000F11D97FDFA95EE5BFE4FE081E0FFD4CF7B
:100BD000DF91CF910895DF92EF92FF920F931F93D1
:100BE000CF93DF9320E030E080E090E0FC01E20F63
:100BF000F31FEE5BFE4F408142604B7F40830196C6
:100C00008C30910599F7245F3F4F2036310561F70D
:100C10000091010110910201E0900301F0900401A4
:100C20008CE08E9DF0018F9DF00D1124E00FF11FDF
:100C3000EE5BFE4F808184608083C0910001C1958E
:100C40008C2F880FD2E0D80FD12C6D2D6E0D802FF8
:100C50008C1B0E948D056E2D6C1B802F8D190E94A0
:100C60008D056E2D6D198C2F800F0E948D056C2FB8
:100C70006E0D8D2D800F0E948D05DD167CF0D394B6
:100C80008D2D880F990B01968D0F911DD7FD9A958B
:100C9000282FCD1724F0D81654F401C02D2FCF5F84
:100CA0008C2F880F990B0196D22FD80F01C0D82F07
:100CB000C7FDCBCFDF91CF911F910F91FF90EF90A8
:100CC000DF9008950F931F93CF93DF931F92CDB7BB
:100CD000DEB782E0898342E450E061E276E080E8BA
:100CE0000E94EE030E94240DDC0112960D911C91CE
:100CF00013970115110569F0D801ED91FC9102805F
:100D0000F381E02DBE016F5F7F4FC801099597FF0A
:100D100007C089810F90DF91CF911F910F910895A6
:100D2000F80100851185E5CF0E94C0101F920F9237
:100D30000FB60F9211248F939F938091E1009091B1
:100D4000E100937F9093E10083FF0FC01092E900D0
:100D500091E09093EB001092EC0092E39093ED0001
:100D60001092B40198E09093F00082FF20C093E0CD
:100D70009093E9009091F200992319F09AE39093EF
:100D8000E8009091B101992339F09091B10191500F
:100D90009093B101992389F19091B301992339F08E
:100DA0009091B30191509093B301992341F184FF45
:100DB00010C08091E2008E7E81608093E20080917D
:100DC000E1008F7E8093E1008091B2018E7E806190
:100DD00011C080FF16C08091E2008E7E80618093FA
:100DE000E2008091E1008E7E8093E1008091B2016B
:100DF0008E7E81608093B20104C05D9ACDCF289A27
:100E0000D6CF9F918F910F900FBE0F901F90189586
:100E10001F920F920FB60F921124CF92DF92EF9292
:100E2000FF920F931F932F933F934F935F936F9373
:100E30007F938F939F93AF93BF93EF93FF93CF9342
:100E4000DF93CDB7DEB76C97DEBFCDBF1092E90060
:100E50008091E80083FFEDC168E0CE0145960E94D5
:100E6000150482EF8093E8008D8987FF05C090917B
:100E7000E80090FFFCCF03C09EEF9093E800982F0E
:100E8000907609F0C6C09E892F89188D91110CC0EB
:100E9000803829F48091B0018093F10002C0109253
:100EA000F1001092F10048C1422F50E0512B9130D7
:100EB00051F4811141C14130510509F03DC180918A
:100EC000B0018D7F0BC0933061F4811135C1413089
:100ED000510509F031C18091B00182608093B00169
:100EE0002BC1953041F48091E80080FFFCCF206851
:100EF0002093E30021C1963009F05FC0EB8CFC8C9D
:100F00001092E9001092AE011092AD01123091F5ED
:100F10001092AC011092AB010E94620699E0BE01F2
:100F20006F5F7F4FDB01E92F1D92EA95E9F7998307
:100F30001A8391E09E8390EA98879AEF998720918F
:100F4000AD013091AE01275F3F4F3C832B838D83F2
:100F50001092E9001092AE011092AD01F092AC0136
:100F6000E092AB0149E050E080E00E94EE030E9475
:100F70006206E2C0F092AC01E092AB010E94240D47
:100F8000DC011296ED90FC901397E114F10409F442
:100F9000C0C0D701ED91FC910480F581E02DBE0128
:100FA0006B5E7F4FC7010995009719F00CF0C4C024
:100FB000C7C0F701E084F184E8CF973009F4C0C0DE
:100FC000983021F481E08093F100B6C0993009F0A7
:100FD000B3C0837009F0B4C0E6E1F1E081E021E044
:100FE00036E39081992361F08093E9002093EB0030
:100FF00091919093EC003093ED008F5F873089F7EB
:101000008EE78093EA001092EA008F898093B40102
:1010100093C08B8D9C8D1092E9001092AE011092BE
:10102000AD019093AC018093AB01898D811156C0C5
:101030008E899D89913A59F4813209F081C047E047
:1010400050E069E071E080E00E94EE0375C09132EB
:1010500009F076C0833289F4888D90E0982F882734
:101060002F89822BA0E0B0E08093050190930601C8
:10107000A0930701B09308015FC0803269F48091AA
:10108000E80082FFFCCF67E089E091E00E94150450
:101090008BEF8093E80006C0823209F04DC08F8943
:1010A000809310018091AF01882319F0EEEFFAE0F0
:1010B00002C0E0E0F8E08091090190910A01A0915E
:1010C0000B01B0910C01803B9440A105B10509F0E2
:1010D0007BC08091100180FF93C076C00E94240DD8
:1010E000DC0112960D911C9113970115110541F128
:1010F000D801ED91FC910190F081E02DBE016B5E75
:101100007F4FC8010995811117C0F801008511852D
:10111000ECCF113009F44EC0133091F48F8988233D
:1011200009F445C0823081F440E867E085E896E044
:101130000E94B103882321F08EEF8093E80079C0EC
:1011400081E28093EB0075C0813029F440E86BE0C8
:1011500089E796E0EDCF833099F70E94240DDC01FA
:101160001296ED90FC9013978E010F5F1F4F680150
:10117000E114F10479F0D701ED91FC910680F7813B
:10118000E02DB801C7010995080F111DF701E08492
:10119000F184EECFD8011C92F60101900020E9F70E
:1011A0003197BF016C197D0940E0C601C1CF63E6EC
:1011B00076E002C067E676E06115710509F2FB0191
:1011C000449150E080E840CF0FB6F894A895809104
:1011D0006000886180936000109260000FBEA89547
:1011E000EE3F2AE0F20739F08091FE0A9091FF0A63
:1011F00091838083A1CF1092FF0A1092FE0A9CCFA8
:10120000EE3F8AE0F80731F0808191819093FF0AE8
:101210008093FE0A87E797E7918380839BE088E1CC
:101220000FB6F894A895809360000FBE909360006D
:1012300083CF6C960FB6F894DEBF0FBECDBFDF91A3
:10124000CF91FF91EF91BF91AF919F918F917F913E
:101250006F915F914F913F912F911F910F91FF904F
:10126000EF90DF90CF900F900FBE0F901F901895CA
:101270008F929F92AF92BF92CF92DF92EF92FF92A6
:101280006B017C010E9422044B015C01C114D1045A
:10129000E104F104F1F00E942204DC01CB01881981
:1012A0009909AA09BB09883E9340A105B10570F3CD
:1012B00021E0C21AD108E108F10888EE880E83E027
:1012C000981EA11CB11CC114D104E104F10419F74A
:1012D000DDCFFF90EF90DF90CF90BF90AF909F90C9
:1012E0008F900895BC0180E090E00C9438091F9223
:1012F0000F920FB60F9211242F933F938F939F93CA
:10130000AF93BF938091A3019091A401A091A501F7
:10131000B091A6013091A20123E0230F2D3720F4D4
:101320000196A11DB11D05C026E8230F0296A11D3F
:10133000B11D2093A2018093A3019093A401A093D7
:10134000A501B093A6018091A7019091A801A09159
:10135000A901B091AA010196A11DB11D8093A70119
:101360009093A801A093A901B093AA01BF91AF9156
:101370009F918F913F912F910F900FBE0F901F90D3
:101380001895FC018091B401811103C08FEF9FEF8C
:1013900008959FB7F89482E08093E9002091F200CD
:1013A00030E01216130614F421E030E02115310567
:1013B00059F0289884E68093B3018091F1008083EE
:1013C0008091F200882319F09FBFC90108958BE630
:1013D0008093E800F9CF2FB7F89483E08093E90079
:1013E0009091E800892F807295FF04C09091F200DF
:1013F00080E4891B2FBF0895CF93DF931F92CDB751
:10140000DEB76983DC01ED91FC910280F381E02D70
:1014100041E050E0BE016F5F7F4F09950F90DF9173
:10142000CF91089583E08093E9008091F2008823B2
:1014300019F08AE38093E80008950E94EB0990E098
:101440000895CF93DF931F92CDB7DEB7FC0184855B
:10145000958597FD05C02FEF3FEF358724870BC09B
:10146000CE0101960E94C109019719F4898190E08B
:1014700002C08FEF9FEF0F90DF91CF9108950F93F0
:101480001F93CF93DF931F92CDB7DEB78C01FC0182
:101490008485958597FF0EC0CE0101960E94C109F3
:1014A000019719F4298130E002C02FEF3FEFF801D6
:1014B00035872487F801848595850F90DF91CF913A
:1014C0001F910F910895FC018485958597FD0BC0B0
:1014D0009FB7F89482E08093E9008091F2009FBF6B
:1014E00090E0019608959FB7F89482E08093E90018
:1014F0008091F2009FBF90E008958F929F92AF92EB
:10150000BF92CF92DF92EF92FF920F931F93CF93F0
:10151000DF935C016B017A0180911001882309F44B
:101520005BC08091B401882309F456C08091B20158
:1015300080FF05C08091E00082608093E000E701B9
:1015400010E00AEF83E0882E9AE3992E2097D9F1D4
:101550000E94EB0981110AC0015009F43DC061E00D
:1015600070E080E090E00E943809F0CF282F30E052
:10157000C217D3070CF48C2F4FB7F8948092E90070
:101580009091E80095FF1DC0282F30E0C21BD30BBF
:10159000F601982F915020F081918093F100FACFBD
:1015A000C20ED31E112319F09092E80009C0809159
:1015B000E80085FD06C09092E80011E0209709F050
:1015C00010E04FBFC3CF1111C3CF5D9884E6809365
:1015D000B1011E141F0444F081E090E0F5019383F3
:1015E000828380E090E001C0C701DF91CF911F911D
:1015F0000F91FF90EF90DF90CF90BF90AF909F90B2
:101600008F9008956F927F928F929F92AF92BF9228
:10161000CF92DF92EF92FF920F931F93CF93DF93BE
:1016200000D000D0CDB7DEB7DC01EDE8F6E0F490F5
:10163000EEE8F6E094910F2D10E0442311F1E92F2C
:10164000E695E695E695CE2ED12CE1E0F0E0892FE7
:10165000877011F4E0E0F0E0EC0DFD1D0E9F6001DD
:101660000F9FD00C1E9FD00C1124233011F4CC0CF2
:10167000DD1C4C9DF0014D9DF00D1124E157F94FFB
:1016800002C0EFE8F6E02F3F09F422E0AD01400F81
:10169000511F141615060CF0B4C1A038B1050CF09A
:1016A000B0C16B01C90ED11C1C141D040CF0A9C1E2
:1016B000603471050CF0A5C1309709F4A2C1862FE2
:1016C0008770982E6B0177FF03C087E0C80ED11C8E
:1016D00033E0D594C7943A95E1F73C2D77FF04C0E9
:1016E000992011F03FEF3C0DB7FF05C06627772723
:1016F0006A1B7B0B02C060E070E04038510524F0AB
:1017000080E8882E8A1A01C08F2C861AC32E032ED9
:10171000000CDD083F3F1CF48C2D809501C080E05B
:1017200051E0492F477009F450E0969596959695AB
:10173000590FC50ED11C99E0C916D10414F058E018
:10174000531B581B380F40E83403A00DB11D112462
:10175000A60FB71F8F9D600D711D1124CF01860F3D
:10176000971FE1E0F0E07F01092C02C0EE0CFF1CA6
:101770000A94E2F7233009F404C1A0F4213009F4FB
:10178000B5C0223009F03DC12FEF2E9DB0012F9D35
:10179000700D1124609570957C836B837C80652E21
:1017A000630E2BC02A3F31F02B3F09F02AC1B52E22
:1017B000B30E88C0B52EB30E52C0FC01EC0DFD1D5A
:1017C000E491EE9D5001EF9DB00C1124BA82A982E4
:1017D00037FD05C0FA0120812623A22AA08291109C
:1017E00015C0FFEFCF1ADF0A4F5F5F4FC81428F311
:1017F0003F5F800F911FA058BF4F361509F401C1FC
:10180000AD014B545E4FC12CD12CF0CF37304CF78B
:10181000FA01E058FF4F20812721BA802B2920832D
:10182000E0CFFC01E60FF71FE491EE9D6001EF9D14
:10183000D00C1124DA82C98237FD04C0FA0120815C
:10184000C22AC082911014C06F5F7F4F4F5F5F4FFD
:10185000681538F33F5F800F911FA058BF4F3B15AD
:1018600009F4CFC0AD014B545E4F60E070E0F0CFA3
:10187000373054F7FA01E058FF4FD0802A812D29E4
:101880002083E2CFFC01EC0DFD1DE491EE9DA00153
:10189000EF9D500D11245A83498337FD05C04095B3
:1018A000FB01208142234083911015C0FFEFCF1A26
:1018B000DF0A6F5F7F4FC81428F33F5F800F911FCF
:1018C000A058BF4F3B1509F49CC0BD016B547E4F1F
:1018D000C12CD12CF0CF37304CF7FB01E058FF4F33
:1018E0002A812095408124232083E0CF252F230FB8
:1018F000AB01481B590B321709F483C0FD01EB54AF
:10190000FE4F5F01C12CD12CC814A8F5F601E40FDD
:10191000F51FE80FF91FE491EE9DB001EF9D700DEA
:101920001124609570957C836B83FC01EC0DFD1D8B
:10193000E491EE9D3001EF9D700C11247A82698252
:1019400037FD05C0F50170816723662A6082992002
:1019500059F037304CF4F501E058FF4F70816C813D
:1019600067237A81672B6083FFEFCF1ADF0A6FEF5F
:10197000A61AB60AC9CF3F5F800F911FA058BF4F6C
:10198000BACFC82CD12CFC01E60FF71FAB54BE4FC9
:1019900060E870E06C197D090C191D09000F111F1A
:1019A000282DCF93DF93ED01EF96EF962296A59029
:1019B000C590992059F0AE9C5001CE9C6001373003
:1019C0002CF4F880D094FD20FB28F99233233AF0D0
:1019D000FC90C094FC20FA28FD920C94F00C119617
:1019E0002A9529F75A9551F0282D33951124E00FA7
:1019F000F11DA60FB11DC60FD11DD9CFDF91CF911B
:101A000011240F900F900F900F90DF91CF911F91A5
:101A10000F91FF90EF90DF90CF90BF90AF909F908D
:101A20008F907F906F900895E5EBF1E080E0A0E06B
:101A3000B8E000800EBC8111012C1197A0FDFDCFF4
:101A40000192B9F70DB408958091D00581110DC0B0
:101A500082E08093CC0584E08093CD051092CF0581
:101A60001092CE0581E08093D0058CEC95E008952E
:101A70000F931F93CF93DF938C0181E090E00E943E
:101A80004F1080FF31C08AE090E00E944F109FEF1E
:101A9000980F9E3F48F522E330E0D80150963C93E2
:101AA0002E931F9728E330E052963C932E93519744
:101AB000CBE0D0E0D801ED91FC910190F081E02DD8
:101AC000682FC8010995CE010E944F102196C1319F
:101AD000D10581F70E94140D88EE93E0DF91CF913C
:101AE0001F910F910C947209DF91CF911F910F916B
:101AF000089504970C94380D789484B5826084BD61
:101B000084B5816084BD85B5826085BD85B5816001
:101B100085BD80916E00816080936E00109281007F
:101B2000809181008260809381008091810081603A
:101B300080938100809180008160809380008091FB
:101B400091008260809391008091910081608093E8
:101B50009100809190008160809390008091C100FD
:101B600084608093C1008091C10082608093C10035
:101B70008091C10081608093C1008091C300816029
:101B80008093C3008091C00082608093C0008091E8
:101B9000C20081608093C20080917A00846080934B
:101BA0007A0080917A00826080937A0080917A0036
:101BB000816080937A0080917A00806880937A00B7
:101BC0001092B4011092B0011092B2018091D7002E
:101BD00081608093D70080EA8093D80089B58061C6
:101BE00089BD89B5826089BD09B400FEFDCF61E081
:101BF00070E080E090E00E9438098091D8008F7CEE
:101C000080618093D8008091E000807F8093E00025
:101C10008091E1008E7E8093E1008DE08093E20070
:101C2000559A209AEEEFFFE7859194918B3F9C4D5A
:101C300019F481E08093AF0181EC80937C0085B141
:101C4000806F85B984B1877E84B984B1876E84B989
:101C50005E9A5F988AB1806D8AB9769A6E9881B3E0
:101C6000806F81BB899880B38D7080BB80E58CBD0F
:101C700081E08DBD85E090E00E9472095F9A85E069
:101C800090E00E9472095E985C98E4EBF5E08DE0CC
:101C90008E0F94919EBD00000DB407FEFDCF3196CE
:101CA0008E13F7CF5C9A81E8809364008091650081
:101CB00081608093650080E18093C005809164001D
:101CC0008E7F8093640080917A00806480937A0094
:101CD00080917A0086FDFCCFC0917800D091790088
:101CE0000E9422048E0120E030E098011127002795
:101CF000600F711F821F931F61157105810591058A
:101D000011F00E944610809164008160809364000D
:101D100080E090E0DC01AE5BBE4F20E030E0F901F6
:101D2000E80FF91FEF53FA4FE4914C91E0FB40F9B3
:101D300042604B7F4D932F5F3F4F2C30310579F739
:101D40000C968036910531F7809103019091040142
:101D50002CE0289FF001299FF00D112480910101B2
:101D600090910201E80FF91FEE5BFE4F80818460C5
:101D700080833324339425EBA22E21E0B22E30E071
:101D8000632E30E0732E512C8FB7F8944091A3014D
:101D90005091A4016091A5017091A6018FBF80911F
:101DA000C105942F981B892F9091C205992329F082
:101DB0008093C3051092C205DEC09091C0058917BB
:101DC00040F48F5F891708F0D6C033BE889513BEE4
:101DD000D2C021E02093C2054093C1058091BC058B
:101DE0009091BD0501969093BD058093BC05C09070
:101DF0000101D0900201E0900301F0900401809174
:101E0000BE058093BF050E9472048093BE05809139
:101E1000BC059091BD0587709927892B09F053C0A7
:101E20000E947204E70187FD21970E94720484FDDD
:101E300021960E947204860185FF02C0015011099B
:101E40000E94720486FF02C00F5F1F4F0E9472043F
:101E500083FF09C080910001815087FD80E080935D
:101E600000010E94EB050E94720482FF0AC080916B
:101E700000018F5F89300CF088E0809300010E94A0
:101E8000EB050C30110514F00BE010E017FF02C059
:101E900000E010E0C830D10514F0C7E0D0E0D7FF73
:101EA00002C0C0E0D0E00C151D0519F4CE15DF0509
:101EB00051F01093020100930101D0930401C093EB
:101EC00003010E94EB05852DF50181118FEF0024A0
:101ED00081938193819381930394D1F71092C705E5
:101EE0001092C6051092C5051092C40592E4C92E41
:101EF00091E0D92EC0E0D0E080E1E82EF12C00E0A6
:101F000010E0C601825491404C01F601E00FF11F30
:101F10004080F801E80DF91DEE5BFE4F208020FAAD
:101F2000222420F82AEF422DBE01C7010E94020B95
:101F300020FA40F841FE06C02BEF43E0BE01C70186
:101F40000E94020B42FE06C022E042E0BE01C70131
:101F50000E94020B0F5F1F4F88E0E80EF11C0C304F
:101F6000110599F628969CE0C90ED11CC034D10504
:101F700019F60E94140D6114710409F405CF0E9432
:101F8000000001CFE8EDF5E01382128288EE93E0C5
:101F9000A0E0B0E084839583A683B78380E291E0DC
:101FA000918380838FEF9FEF95878487E5EBF5E042
:101FB000138212821186128680E18387108617822F
:101FC000158682E391E09183808380E491E095839C
:101FD0008483108A1786128A118A81E0838B148A7F
:101FE000858B168A08958F929F92AF92BF92CF925F
:101FF000DF92EF92FF92CF93DF93EC0168817981BA
:102000008A819B81611571058105910521F464E246
:1020100079ED8BE597E02DE133EF41E050E00E9450
:10202000571049015A019B01AC01A7EAB1E40E9493
:1020300076106B017C01ACEEB4EFA50194010E9417
:102040008410DC01CB018C0D9D1DAE1DBF1DB7FFA3
:1020500003C00197A109B04888839983AA83BB83F1
:10206000BC01CD019F77DF91CF91FF90EF90DF9082
:10207000CF90BF90AF909F908F9008950E94F30FE4
:10208000089581E191E00E94F30F0895609311019A
:102090007093120180931301909314010895F9999C
:1020A000FECF92BD81BDF89A992780B50895052E7F
:1020B00097FB1EF400940E946E1057FD07D00E94FB
:1020C000891007FC03D04EF40C946E105095409587
:1020D000309521953F4F4F4F5F4F089590958095D4
:1020E000709561957F4F8F4F9F4F08950E94AB1061
:1020F000A59F900DB49F900DA49F800D911D11245C
:102100000895B7FF0C9476100E947610821B930BF3
:102110000895A1E21A2EAA1BBB1BFD010DC0AA1F28
:10212000BB1FEE1FFF1FA217B307E407F50720F040
:10213000A21BB30BE40BF50B661F771F881F991FBB
:102140001A9469F760957095809590959B01AC0104
:10215000BD01CF010895A29FB001B39FC001A39F0D
:10216000700D811D1124911DB29F700D811D1124D0
:10217000911D0895EE0FFF1F0590F491E02D099435
:0E21800081E090E0F8940C94C510F894FFCF25
:10218E000205000500FFFFFFFF00E1000000000058
:10219E00000100000000C18081000000000000006E
:1021AE00FC097D0A1D0A120A630A210A3F0A000071
:1021BE0000007A0447048A058905380DFCFF0000EB
:0221CE00790D89
:00000001FF
